{
  "contractName": "CryptoBears",
  "abi": [
    {
      "inputs": [],
      "payable": false,
      "stateMutability": "nonpayable",
      "type": "constructor"
    },
    {
      "anonymous": false,
      "inputs": [
        {
          "indexed": true,
          "internalType": "address",
          "name": "owner",
          "type": "address"
        },
        {
          "indexed": true,
          "internalType": "address",
          "name": "approved",
          "type": "address"
        },
        {
          "indexed": true,
          "internalType": "uint256",
          "name": "tokenId",
          "type": "uint256"
        }
      ],
      "name": "Approval",
      "type": "event"
    },
    {
      "anonymous": false,
      "inputs": [
        {
          "indexed": true,
          "internalType": "address",
          "name": "owner",
          "type": "address"
        },
        {
          "indexed": true,
          "internalType": "address",
          "name": "operator",
          "type": "address"
        },
        {
          "indexed": false,
          "internalType": "bool",
          "name": "approved",
          "type": "bool"
        }
      ],
      "name": "ApprovalForAll",
      "type": "event"
    },
    {
      "anonymous": false,
      "inputs": [
        {
          "indexed": false,
          "internalType": "address",
          "name": "owner",
          "type": "address"
        },
        {
          "indexed": false,
          "internalType": "uint256",
          "name": "bearId",
          "type": "uint256"
        },
        {
          "indexed": false,
          "internalType": "uint256",
          "name": "mumId",
          "type": "uint256"
        },
        {
          "indexed": false,
          "internalType": "uint256",
          "name": "dadId",
          "type": "uint256"
        },
        {
          "indexed": false,
          "internalType": "uint256",
          "name": "genes",
          "type": "uint256"
        }
      ],
      "name": "Birth",
      "type": "event"
    },
    {
      "anonymous": false,
      "inputs": [
        {
          "indexed": true,
          "internalType": "address",
          "name": "from",
          "type": "address"
        },
        {
          "indexed": true,
          "internalType": "address",
          "name": "to",
          "type": "address"
        },
        {
          "indexed": true,
          "internalType": "uint256",
          "name": "tokenId",
          "type": "uint256"
        }
      ],
      "name": "Transfer",
      "type": "event"
    },
    {
      "anonymous": false,
      "inputs": [
        {
          "indexed": false,
          "internalType": "address",
          "name": "owner",
          "type": "address"
        }
      ],
      "name": "ownerSet",
      "type": "event"
    },
    {
      "constant": true,
      "inputs": [],
      "name": "CREATION_LIMIT_GEN0",
      "outputs": [
        {
          "internalType": "uint256",
          "name": "",
          "type": "uint256"
        }
      ],
      "payable": false,
      "stateMutability": "view",
      "type": "function"
    },
    {
      "constant": true,
      "inputs": [],
      "name": "bearTokenName",
      "outputs": [
        {
          "internalType": "string",
          "name": "",
          "type": "string"
        }
      ],
      "payable": false,
      "stateMutability": "view",
      "type": "function"
    },
    {
      "constant": true,
      "inputs": [],
      "name": "bearTokenSymbol",
      "outputs": [
        {
          "internalType": "string",
          "name": "",
          "type": "string"
        }
      ],
      "payable": false,
      "stateMutability": "view",
      "type": "function"
    },
    {
      "constant": true,
      "inputs": [],
      "name": "gen0Counter",
      "outputs": [
        {
          "internalType": "uint256",
          "name": "",
          "type": "uint256"
        }
      ],
      "payable": false,
      "stateMutability": "view",
      "type": "function"
    },
    {
      "constant": true,
      "inputs": [
        {
          "internalType": "uint256",
          "name": "",
          "type": "uint256"
        }
      ],
      "name": "tokenIdOwnerMapping",
      "outputs": [
        {
          "internalType": "address",
          "name": "",
          "type": "address"
        }
      ],
      "payable": false,
      "stateMutability": "view",
      "type": "function"
    },
    {
      "constant": true,
      "inputs": [
        {
          "internalType": "uint256",
          "name": "",
          "type": "uint256"
        }
      ],
      "name": "tokenIdToApproved",
      "outputs": [
        {
          "internalType": "address",
          "name": "",
          "type": "address"
        }
      ],
      "payable": false,
      "stateMutability": "view",
      "type": "function"
    },
    {
      "constant": false,
      "inputs": [
        {
          "internalType": "uint256",
          "name": "_dadId",
          "type": "uint256"
        },
        {
          "internalType": "uint256",
          "name": "_momId",
          "type": "uint256"
        }
      ],
      "name": "breed",
      "outputs": [
        {
          "internalType": "uint256",
          "name": "",
          "type": "uint256"
        }
      ],
      "payable": false,
      "stateMutability": "nonpayable",
      "type": "function"
    },
    {
      "constant": true,
      "inputs": [
        {
          "internalType": "bytes4",
          "name": "_interfaceId",
          "type": "bytes4"
        }
      ],
      "name": "supportsInterface",
      "outputs": [
        {
          "internalType": "bool",
          "name": "",
          "type": "bool"
        }
      ],
      "payable": false,
      "stateMutability": "pure",
      "type": "function"
    },
    {
      "constant": false,
      "inputs": [
        {
          "internalType": "address",
          "name": "_from",
          "type": "address"
        },
        {
          "internalType": "address",
          "name": "_to",
          "type": "address"
        },
        {
          "internalType": "uint256",
          "name": "_tokenId",
          "type": "uint256"
        }
      ],
      "name": "safeTransferFrom",
      "outputs": [],
      "payable": false,
      "stateMutability": "nonpayable",
      "type": "function"
    },
    {
      "constant": false,
      "inputs": [
        {
          "internalType": "address",
          "name": "_from",
          "type": "address"
        },
        {
          "internalType": "address",
          "name": "_to",
          "type": "address"
        },
        {
          "internalType": "uint256",
          "name": "_tokenId",
          "type": "uint256"
        },
        {
          "internalType": "bytes",
          "name": "_data",
          "type": "bytes"
        }
      ],
      "name": "safeTransferFrom",
      "outputs": [],
      "payable": false,
      "stateMutability": "nonpayable",
      "type": "function"
    },
    {
      "constant": false,
      "inputs": [
        {
          "internalType": "address",
          "name": "_from",
          "type": "address"
        },
        {
          "internalType": "address",
          "name": "_to",
          "type": "address"
        },
        {
          "internalType": "uint256",
          "name": "_tokenId",
          "type": "uint256"
        }
      ],
      "name": "transferFrom",
      "outputs": [],
      "payable": false,
      "stateMutability": "nonpayable",
      "type": "function"
    },
    {
      "constant": false,
      "inputs": [
        {
          "internalType": "address",
          "name": "_operator",
          "type": "address"
        },
        {
          "internalType": "bool",
          "name": "_approved",
          "type": "bool"
        }
      ],
      "name": "setApprovalForAll",
      "outputs": [],
      "payable": false,
      "stateMutability": "nonpayable",
      "type": "function"
    },
    {
      "constant": false,
      "inputs": [
        {
          "internalType": "address",
          "name": "_approved",
          "type": "address"
        },
        {
          "internalType": "uint256",
          "name": "_tokenId",
          "type": "uint256"
        }
      ],
      "name": "approve",
      "outputs": [],
      "payable": false,
      "stateMutability": "nonpayable",
      "type": "function"
    },
    {
      "constant": true,
      "inputs": [
        {
          "internalType": "uint256",
          "name": "_tokenId",
          "type": "uint256"
        }
      ],
      "name": "getApproved",
      "outputs": [
        {
          "internalType": "address",
          "name": "",
          "type": "address"
        }
      ],
      "payable": false,
      "stateMutability": "view",
      "type": "function"
    },
    {
      "constant": true,
      "inputs": [
        {
          "internalType": "address",
          "name": "_owner",
          "type": "address"
        },
        {
          "internalType": "address",
          "name": "_operator",
          "type": "address"
        }
      ],
      "name": "isApprovedForAll",
      "outputs": [
        {
          "internalType": "bool",
          "name": "",
          "type": "bool"
        }
      ],
      "payable": false,
      "stateMutability": "view",
      "type": "function"
    },
    {
      "constant": true,
      "inputs": [
        {
          "internalType": "uint256",
          "name": "_tokenId",
          "type": "uint256"
        }
      ],
      "name": "getBear",
      "outputs": [
        {
          "internalType": "uint256",
          "name": "genes",
          "type": "uint256"
        },
        {
          "internalType": "uint256",
          "name": "birthTime",
          "type": "uint256"
        },
        {
          "internalType": "uint256",
          "name": "mumId",
          "type": "uint256"
        },
        {
          "internalType": "uint256",
          "name": "dadId",
          "type": "uint256"
        },
        {
          "internalType": "uint256",
          "name": "generation",
          "type": "uint256"
        }
      ],
      "payable": false,
      "stateMutability": "view",
      "type": "function"
    },
    {
      "constant": false,
      "inputs": [
        {
          "internalType": "uint256",
          "name": "_genes",
          "type": "uint256"
        }
      ],
      "name": "createBearGen0",
      "outputs": [
        {
          "internalType": "uint256",
          "name": "",
          "type": "uint256"
        }
      ],
      "payable": false,
      "stateMutability": "nonpayable",
      "type": "function"
    },
    {
      "constant": true,
      "inputs": [
        {
          "internalType": "address",
          "name": "owner",
          "type": "address"
        }
      ],
      "name": "balanceOf",
      "outputs": [
        {
          "internalType": "uint256",
          "name": "balance",
          "type": "uint256"
        }
      ],
      "payable": false,
      "stateMutability": "view",
      "type": "function"
    },
    {
      "constant": true,
      "inputs": [],
      "name": "totalSupply",
      "outputs": [
        {
          "internalType": "uint256",
          "name": "total",
          "type": "uint256"
        }
      ],
      "payable": false,
      "stateMutability": "view",
      "type": "function"
    },
    {
      "constant": true,
      "inputs": [],
      "name": "name",
      "outputs": [
        {
          "internalType": "string",
          "name": "tokenName",
          "type": "string"
        }
      ],
      "payable": false,
      "stateMutability": "view",
      "type": "function"
    },
    {
      "constant": true,
      "inputs": [],
      "name": "symbol",
      "outputs": [
        {
          "internalType": "string",
          "name": "tokenSymbol",
          "type": "string"
        }
      ],
      "payable": false,
      "stateMutability": "view",
      "type": "function"
    },
    {
      "constant": true,
      "inputs": [
        {
          "internalType": "uint256",
          "name": "tokenId",
          "type": "uint256"
        }
      ],
      "name": "ownerOf",
      "outputs": [
        {
          "internalType": "address",
          "name": "owner",
          "type": "address"
        }
      ],
      "payable": false,
      "stateMutability": "view",
      "type": "function"
    },
    {
      "constant": false,
      "inputs": [
        {
          "internalType": "address",
          "name": "to",
          "type": "address"
        },
        {
          "internalType": "uint256",
          "name": "_tokenId",
          "type": "uint256"
        }
      ],
      "name": "transfer",
      "outputs": [],
      "payable": false,
      "stateMutability": "nonpayable",
      "type": "function"
    },
    {
      "constant": true,
      "inputs": [
        {
          "internalType": "address",
          "name": "_claimant",
          "type": "address"
        },
        {
          "internalType": "uint256",
          "name": "_tokenId",
          "type": "uint256"
        }
      ],
      "name": "_owns",
      "outputs": [
        {
          "internalType": "bool",
          "name": "",
          "type": "bool"
        }
      ],
      "payable": false,
      "stateMutability": "view",
      "type": "function"
    },
    {
      "constant": false,
      "inputs": [],
      "name": "getBearsLength",
      "outputs": [
        {
          "internalType": "uint256",
          "name": "",
          "type": "uint256"
        }
      ],
      "payable": false,
      "stateMutability": "nonpayable",
      "type": "function"
    }
  ],
  "bytecode": "0x60806040523480156200001157600080fd5b50336000806101000a81548173ffffffffffffffffffffffffffffffffffffffff021916908373ffffffffffffffffffffffffffffffffffffffff1602179055507f02e3cdb0a1a6322f9160f5e33c21f317e6f18e77c771778f9be6d0752f9f988b6000809054906101000a900473ffffffffffffffffffffffffffffffffffffffff16604051808273ffffffffffffffffffffffffffffffffffffffff1673ffffffffffffffffffffffffffffffffffffffff16815260200191505060405180910390a16200010e60008060007fffffffffffffffffffffffffffffffffffffffffffffffffffffffffffffffff60006200011560201b60201c565b50620004ef565b600062000121620004a6565b6040518060a001604052808581526020014267ffffffffffffffff1681526020018863ffffffff1681526020018763ffffffff1681526020018661ffff168152509050600060018083908060018154018082558091505090600182039060005260206000209060020201600090919290919091506000820151816000015560208201518160010160006101000a81548167ffffffffffffffff021916908367ffffffffffffffff16021790555060408201518160010160086101000a81548163ffffffff021916908363ffffffff160217905550606082015181600101600c6101000a81548163ffffffff021916908363ffffffff16021790555060808201518160010160106101000a81548161ffff021916908361ffff16021790555050500390507f0a5311bd2a6608f08a180df2ee7c5946819a649b204b554bb8e39825b2c50ad584828a8a89604051808673ffffffffffffffffffffffffffffffffffffffff1673ffffffffffffffffffffffffffffffffffffffff1681526020018581526020018481526020018381526020018281526020019550505050505060405180910390a1620002db60008583620002e960201b60201c565b809250505095945050505050565b600260008373ffffffffffffffffffffffffffffffffffffffff1673ffffffffffffffffffffffffffffffffffffffff16815260200190815260200160002060008154809291906001019190505550816003600083815260200190815260200160002060006101000a81548173ffffffffffffffffffffffffffffffffffffffff021916908373ffffffffffffffffffffffffffffffffffffffff160217905550600073ffffffffffffffffffffffffffffffffffffffff168373ffffffffffffffffffffffffffffffffffffffff16146200044657600260008473ffffffffffffffffffffffffffffffffffffffff1673ffffffffffffffffffffffffffffffffffffffff16815260200190815260200160002060008154809291906001900391905055506004600082815260200190815260200160002060006101000a81549073ffffffffffffffffffffffffffffffffffffffff02191690555b808273ffffffffffffffffffffffffffffffffffffffff168473ffffffffffffffffffffffffffffffffffffffff167fddf252ad1be2c89b69c2b068fc378daa952ba7f163c4a11628f55a4df523b3ef60405160405180910390a4505050565b6040518060a0016040528060008152602001600067ffffffffffffffff168152602001600063ffffffff168152602001600063ffffffff168152602001600061ffff1681525090565b6126a280620004ff6000396000f3fe608060405234801561001057600080fd5b50600436106101735760003560e01c80638724d112116100de578063b483433011610097578063e21fd9fc11610071578063e21fd9fc1461099e578063e985e9c514610a04578063eb5653d714610a80578063ef5e94aa14610aee57610173565b8063b48343301461082f578063b88d4fde1461084d578063d9ecad7b1461095257610173565b80638724d1121461062457806395d89b41146106825780639b7505f814610705578063a22cb46514610773578063a9059cbb146107c3578063add62c2f1461081157610173565b806323b872dd1161013057806323b872dd146103bd57806342842e0e1461042b5780634f9dc35314610499578063631bec34146104db5780636352211e1461055e57806370a08231146105cc57610173565b806301ffc9a71461017857806306fdde03146101dd578063081812fc14610260578063095ea7b3146102ce57806316e8b9e31461031c57806318160ddd1461039f575b600080fd5b6101c36004803603602081101561018e57600080fd5b8101908080357bffffffffffffffffffffffffffffffffffffffffffffffffffffffff19169060200190929190505050610b0c565b604051808215151515815260200191505060405180910390f35b6101e5610bac565b6040518080602001828103825283818151815260200191508051906020019080838360005b8381101561022557808201518184015260208101905061020a565b50505050905090810190601f1680156102525780820380516001836020036101000a031916815260200191505b509250505060405180910390f35b61028c6004803603602081101561027657600080fd5b8101908080359060200190929190505050610be9565b604051808273ffffffffffffffffffffffffffffffffffffffff1673ffffffffffffffffffffffffffffffffffffffff16815260200191505060405180910390f35b61031a600480360360408110156102e457600080fd5b81019080803573ffffffffffffffffffffffffffffffffffffffff16906020019092919080359060200190929190505050610ca0565b005b610324610d68565b6040518080602001828103825283818151815260200191508051906020019080838360005b83811015610364578082015181840152602081019050610349565b50505050905090810190601f1680156103915780820380516001836020036101000a031916815260200191505b509250505060405180910390f35b6103a7610da1565b6040518082815260200191505060405180910390f35b610429600480360360608110156103d357600080fd5b81019080803573ffffffffffffffffffffffffffffffffffffffff169060200190929190803573ffffffffffffffffffffffffffffffffffffffff16906020019092919080359060200190929190505050610dae565b005b6104976004803603606081101561044157600080fd5b81019080803573ffffffffffffffffffffffffffffffffffffffff169060200190929190803573ffffffffffffffffffffffffffffffffffffffff1690602001909291908035906020019092919050505061101b565b005b6104c5600480360360208110156104af57600080fd5b810190808035906020019092919050505061103b565b6040518082815260200191505060405180910390f35b6104e3611182565b6040518080602001828103825283818151815260200191508051906020019080838360005b83811015610523578082015181840152602081019050610508565b50505050905090810190601f1680156105505780820380516001836020036101000a031916815260200191505b509250505060405180910390f35b61058a6004803603602081101561057457600080fd5b81019080803590602001909291905050506111bb565b604051808273ffffffffffffffffffffffffffffffffffffffff1673ffffffffffffffffffffffffffffffffffffffff16815260200191505060405180910390f35b61060e600480360360208110156105e257600080fd5b81019080803573ffffffffffffffffffffffffffffffffffffffff1690602001909291905050506111f8565b6040518082815260200191505060405180910390f35b6106506004803603602081101561063a57600080fd5b8101908080359060200190929190505050611241565b604051808681526020018581526020018481526020018381526020018281526020019550505050505060405180910390f35b61068a611353565b6040518080602001828103825283818151815260200191508051906020019080838360005b838110156106ca5780820151818401526020810190506106af565b50505050905090810190601f1680156106f75780820380516001836020036101000a031916815260200191505b509250505060405180910390f35b6107316004803603602081101561071b57600080fd5b8101908080359060200190929190505050611390565b604051808273ffffffffffffffffffffffffffffffffffffffff1673ffffffffffffffffffffffffffffffffffffffff16815260200191505060405180910390f35b6107c16004803603604081101561078957600080fd5b81019080803573ffffffffffffffffffffffffffffffffffffffff1690602001909291908035151590602001909291905050506113c3565b005b61080f600480360360408110156107d957600080fd5b81019080803573ffffffffffffffffffffffffffffffffffffffff16906020019092919080359060200190929190505050611456565b005b6108196115cf565b6040518082815260200191505060405180910390f35b6108376115dc565b6040518082815260200191505060405180910390f35b6109506004803603608081101561086357600080fd5b81019080803573ffffffffffffffffffffffffffffffffffffffff169060200190929190803573ffffffffffffffffffffffffffffffffffffffff16906020019092919080359060200190929190803590602001906401000000008111156108ca57600080fd5b8201836020820111156108dc57600080fd5b803590602001918460018302840111640100000000831117156108fe57600080fd5b91908080601f016020809104026020016040519081016040528093929190818152602001838380828437600081840152601f19601f8201169050808301925050505050505091929192905050506115e1565b005b6109886004803603604081101561096857600080fd5b810190808035906020019092919080359060200190929190505050611850565b6040518082815260200191505060405180910390f35b6109ea600480360360408110156109b457600080fd5b81019080803573ffffffffffffffffffffffffffffffffffffffff16906020019092919080359060200190929190505050611b1f565b604051808215151515815260200191505060405180910390f35b610a6660048036036040811015610a1a57600080fd5b81019080803573ffffffffffffffffffffffffffffffffffffffff169060200190929190803573ffffffffffffffffffffffffffffffffffffffff169060200190929190505050611b8b565b604051808215151515815260200191505060405180910390f35b610aac60048036036020811015610a9657600080fd5b8101908080359060200190929190505050611c1f565b604051808273ffffffffffffffffffffffffffffffffffffffff1673ffffffffffffffffffffffffffffffffffffffff16815260200191505060405180910390f35b610af6611c52565b6040518082815260200191505060405180910390f35b60006380ac58cd60e01b7bffffffffffffffffffffffffffffffffffffffffffffffffffffffff1916827bffffffffffffffffffffffffffffffffffffffffffffffffffffffff19161480610ba557506301ffc9a760e01b7bffffffffffffffffffffffffffffffffffffffffffffffffffffffff1916827bffffffffffffffffffffffffffffffffffffffffffffffffffffffff1916145b9050919050565b60606040518060400160405280600b81526020017f43727970746f4265617273000000000000000000000000000000000000000000815250905090565b60006001805490508210610c65576040517f08c379a00000000000000000000000000000000000000000000000000000000081526004018080602001828103825260158152602001807f4e6f7420612076616c696420746f6b656e20494421000000000000000000000081525060200191505060405180910390fd5b6004600083815260200190815260200160002060009054906101000a900473ffffffffffffffffffffffffffffffffffffffff169050919050565b610caa3382611b1f565b610cff576040517f08c379a00000000000000000000000000000000000000000000000000000000081526004018080602001828103825260318152602001806126056031913960400191505060405180910390fd5b610d098282611c58565b808273ffffffffffffffffffffffffffffffffffffffff163373ffffffffffffffffffffffffffffffffffffffff167f8c5be1e5ebec7d5bd14f71427d1e84f3dd0314c0f7b2291e5b200ac8c7c3b92560405160405180910390a45050565b6040518060400160405280600b81526020017f43727970746f426561727300000000000000000000000000000000000000000081525081565b6000600180549050905090565b8273ffffffffffffffffffffffffffffffffffffffff163373ffffffffffffffffffffffffffffffffffffffff161480610e4657506004600082815260200190815260200160002060009054906101000a900473ffffffffffffffffffffffffffffffffffffffff1673ffffffffffffffffffffffffffffffffffffffff163373ffffffffffffffffffffffffffffffffffffffff16145b80610e575750610e568333611b8b565b5b610eac576040517f08c379a00000000000000000000000000000000000000000000000000000000081526004018080602001828103825260388152602001806126366038913960400191505060405180910390fd5b610eb68382611b1f565b610f0b576040517f08c379a000000000000000000000000000000000000000000000000000000000815260040180806020018281038252602d8152602001806125d8602d913960400191505060405180910390fd5b600073ffffffffffffffffffffffffffffffffffffffff168273ffffffffffffffffffffffffffffffffffffffff161415610f91576040517f08c379a00000000000000000000000000000000000000000000000000000000081526004018080602001828103825260298152602001806125af6029913960400191505060405180910390fd5b600180549050811061100b576040517f08c379a000000000000000000000000000000000000000000000000000000000815260040180806020018281038252601a8152602001807f5468697320746f6b656e20646f6573206e6f742065786973742100000000000081525060200191505060405180910390fd5b611016838383611cae565b505050565b611036838383604051806020016040528060008152506115e1565b505050565b60008060009054906101000a900473ffffffffffffffffffffffffffffffffffffffff1673ffffffffffffffffffffffffffffffffffffffff163373ffffffffffffffffffffffffffffffffffffffff16146110e2576040517f08c379a000000000000000000000000000000000000000000000000000000000815260040180806020018281038252602581526020018061258a6025913960400191505060405180910390fd5b600a6006541061115a576040517f08c379a00000000000000000000000000000000000000000000000000000000081526004018080602001828103825260178152602001807f4372656174696f6e206c696d697420726561636865642100000000000000000081525060200191505060405180910390fd5b60066000815480929190600101919050555061117b60008060008533611e6a565b9050919050565b6040518060400160405280600281526020017f434200000000000000000000000000000000000000000000000000000000000081525081565b60006003600083815260200190815260200160002060009054906101000a900473ffffffffffffffffffffffffffffffffffffffff169050919050565b6000600260008373ffffffffffffffffffffffffffffffffffffffff1673ffffffffffffffffffffffffffffffffffffffff168152602001908152602001600020549050919050565b60008060008060006001868154811061125657fe5b9060005260206000209060020201600001546001878154811061127557fe5b906000526020600020906002020160010160009054906101000a900467ffffffffffffffff1667ffffffffffffffff16600188815481106112b257fe5b906000526020600020906002020160010160089054906101000a900463ffffffff1663ffffffff16600189815481106112e757fe5b9060005260206000209060020201600101600c9054906101000a900463ffffffff1663ffffffff1660018a8154811061131c57fe5b906000526020600020906002020160010160109054906101000a900461ffff1661ffff169450945094509450945091939590929450565b60606040518060400160405280600281526020017f4342000000000000000000000000000000000000000000000000000000000000815250905090565b60036020528060005260406000206000915054906101000a900473ffffffffffffffffffffffffffffffffffffffff1681565b3373ffffffffffffffffffffffffffffffffffffffff168273ffffffffffffffffffffffffffffffffffffffff161415611448576040517f08c379a00000000000000000000000000000000000000000000000000000000081526004018080602001828103825260218152602001806125696021913960400191505060405180910390fd5b6114528282612034565b5050565b6114603382611b1f565b6114b5576040517f08c379a00000000000000000000000000000000000000000000000000000000081526004018080602001828103825260248152602001806125456024913960400191505060405180910390fd5b600073ffffffffffffffffffffffffffffffffffffffff168273ffffffffffffffffffffffffffffffffffffffff16141561153b576040517f08c379a00000000000000000000000000000000000000000000000000000000081526004018080602001828103825260278152602001806124f86027913960400191505060405180910390fd5b3073ffffffffffffffffffffffffffffffffffffffff168273ffffffffffffffffffffffffffffffffffffffff1614156115c0576040517f08c379a00000000000000000000000000000000000000000000000000000000081526004018080602001828103825260278152602001806124f86027913960400191505060405180910390fd5b6115cb338383611cae565b5050565b6000600180549050905090565b600a81565b8373ffffffffffffffffffffffffffffffffffffffff163373ffffffffffffffffffffffffffffffffffffffff16148061167957506004600083815260200190815260200160002060009054906101000a900473ffffffffffffffffffffffffffffffffffffffff1673ffffffffffffffffffffffffffffffffffffffff163373ffffffffffffffffffffffffffffffffffffffff16145b8061168a57506116898433611b8b565b5b6116df576040517f08c379a00000000000000000000000000000000000000000000000000000000081526004018080602001828103825260388152602001806126366038913960400191505060405180910390fd5b6116e98483611b1f565b61173e576040517f08c379a000000000000000000000000000000000000000000000000000000000815260040180806020018281038252602d8152602001806125d8602d913960400191505060405180910390fd5b600073ffffffffffffffffffffffffffffffffffffffff168373ffffffffffffffffffffffffffffffffffffffff1614156117c4576040517f08c379a00000000000000000000000000000000000000000000000000000000081526004018080602001828103825260298152602001806125af6029913960400191505060405180910390fd5b600180549050821061183e576040517f08c379a000000000000000000000000000000000000000000000000000000000815260040180806020018281038252601a8152602001807f5468697320746f6b656e20646f6573206e6f742065786973742100000000000081525060200191505060405180910390fd5b61184a84848484612135565b50505050565b600061185c3384611b1f565b801561186e575061186d3383611b1f565b5b6118c3576040517f08c379a000000000000000000000000000000000000000000000000000000000815260040180806020018281038252602681526020018061251f6026913960400191505060405180910390fd5b600061190b600185815481106118d557fe5b906000526020600020906002020160000154600185815481106118f457fe5b90600052602060002090600202016000015461215b565b905060006001858154811061191c57fe5b906000526020600020906002020160010160109054906101000a900461ffff1661ffff166001858154811061194d57fe5b906000526020600020906002020160010160109054906101000a900461ffff1661ffff1614156119d2576001848154811061198457fe5b9060005260206000209060020201600101601081819054906101000a900461ffff168092919060010191906101000a81548161ffff021916908361ffff16021790555061ffff169050611b09565b600185815481106119df57fe5b906000526020600020906002020160010160109054906101000a900461ffff1661ffff1660018581548110611a1057fe5b906000526020600020906002020160010160109054906101000a900461ffff1661ffff161015611a955760018481548110611a4757fe5b9060005260206000209060020201600101601081819054906101000a900461ffff168092919060010191906101000a81548161ffff021916908361ffff16021790555061ffff169050611b08565b6001600260018781548110611aa657fe5b906000526020600020906002020160010160109054906101000a900461ffff1660018781548110611ad357fe5b906000526020600020906002020160010160109054906101000a900461ffff160161ffff1681611aff57fe5b040161ffff1690505b5b611b168486838533611e6a565b50505092915050565b60008273ffffffffffffffffffffffffffffffffffffffff166003600084815260200190815260200160002060009054906101000a900473ffffffffffffffffffffffffffffffffffffffff1673ffffffffffffffffffffffffffffffffffffffff1614905092915050565b6000600560008473ffffffffffffffffffffffffffffffffffffffff1673ffffffffffffffffffffffffffffffffffffffff16815260200190815260200160002060008373ffffffffffffffffffffffffffffffffffffffff1673ffffffffffffffffffffffffffffffffffffffff16815260200190815260200160002060009054906101000a900460ff16905092915050565b60046020528060005260406000206000915054906101000a900473ffffffffffffffffffffffffffffffffffffffff1681565b60065481565b816004600083815260200190815260200160002060006101000a81548173ffffffffffffffffffffffffffffffffffffffff021916908373ffffffffffffffffffffffffffffffffffffffff1602179055505050565b600260008373ffffffffffffffffffffffffffffffffffffffff1673ffffffffffffffffffffffffffffffffffffffff16815260200190815260200160002060008154809291906001019190505550816003600083815260200190815260200160002060006101000a81548173ffffffffffffffffffffffffffffffffffffffff021916908373ffffffffffffffffffffffffffffffffffffffff160217905550600073ffffffffffffffffffffffffffffffffffffffff168373ffffffffffffffffffffffffffffffffffffffff1614611e0a57600260008473ffffffffffffffffffffffffffffffffffffffff1673ffffffffffffffffffffffffffffffffffffffff16815260200190815260200160002060008154809291906001900391905055506004600082815260200190815260200160002060006101000a81549073ffffffffffffffffffffffffffffffffffffffff02191690555b808273ffffffffffffffffffffffffffffffffffffffff168473ffffffffffffffffffffffffffffffffffffffff167fddf252ad1be2c89b69c2b068fc378daa952ba7f163c4a11628f55a4df523b3ef60405160405180910390a4505050565b6000611e7461245c565b6040518060a001604052808581526020014267ffffffffffffffff1681526020018863ffffffff1681526020018763ffffffff1681526020018661ffff168152509050600060018083908060018154018082558091505090600182039060005260206000209060020201600090919290919091506000820151816000015560208201518160010160006101000a81548167ffffffffffffffff021916908367ffffffffffffffff16021790555060408201518160010160086101000a81548163ffffffff021916908363ffffffff160217905550606082015181600101600c6101000a81548163ffffffff021916908363ffffffff16021790555060808201518160010160106101000a81548161ffff021916908361ffff16021790555050500390507f0a5311bd2a6608f08a180df2ee7c5946819a649b204b554bb8e39825b2c50ad584828a8a89604051808673ffffffffffffffffffffffffffffffffffffffff1673ffffffffffffffffffffffffffffffffffffffff1681526020018581526020018481526020018381526020018281526020019550505050505060405180910390a161202660008583611cae565b809250505095945050505050565b80600560003373ffffffffffffffffffffffffffffffffffffffff1673ffffffffffffffffffffffffffffffffffffffff16815260200190815260200160002060008473ffffffffffffffffffffffffffffffffffffffff1673ffffffffffffffffffffffffffffffffffffffff16815260200190815260200160002060006101000a81548160ff0219169083151502179055508173ffffffffffffffffffffffffffffffffffffffff163373ffffffffffffffffffffffffffffffffffffffff167f17307eab39ab6107e8899845ad3d59bd9653f200f220920489ca2b5937696c3183604051808215151515815260200191505060405180910390a35050565b612140848484611cae565b61214c8484848461225f565b61215557600080fd5b50505050565b60006121656124a5565b600060ff428161217157fe5b069050600060019050600060079050600191505b60808211612211576000828460ff1616146121c257606486816121a457fe5b0660ff168482600881106121b457fe5b6020020181815250506121e6565b606487816121cc57fe5b0660ff168482600881106121dc57fe5b6020020181815250505b606486816121f057fe5b049550606487816121fd57fe5b049650600181039050600282029150612185565b60008092505b60088310156122515784836008811061222c57fe5b60200201518101905060078314612244576064810290505b8280600101935050612217565b809550505050505092915050565b600061226a84612443565b612277576001905061243b565b60008473ffffffffffffffffffffffffffffffffffffffff1663150b7a02338887876040518563ffffffff1660e01b8152600401808573ffffffffffffffffffffffffffffffffffffffff1673ffffffffffffffffffffffffffffffffffffffff1681526020018473ffffffffffffffffffffffffffffffffffffffff1673ffffffffffffffffffffffffffffffffffffffff16815260200183815260200180602001828103825283818151815260200191508051906020019080838360005b83811015612352578082015181840152602081019050612337565b50505050905090810190601f16801561237f5780820380516001836020036101000a031916815260200191505b5095505050505050602060405180830381600087803b1580156123a157600080fd5b505af11580156123b5573d6000803e3d6000fd5b505050506040513d60208110156123cb57600080fd5b8101908080519060200190929190505050905060405180806124c9602f9139602f01905060405180910390207bffffffffffffffffffffffffffffffffffffffffffffffffffffffff1916817bffffffffffffffffffffffffffffffffffffffffffffffffffffffff1916149150505b949350505050565b600080823b905060008163ffffffff1611915050919050565b6040518060a0016040528060008152602001600067ffffffffffffffff168152602001600063ffffffff168152602001600063ffffffff168152602001600061ffff1681525090565b60405180610100016040528060089060208202803883398082019150509050509056fe6f6e455243373231526563656976656428616464726573732c616464726573732c75696e743235362c627974657329596f752063616e6e6f742073656e6420746f6b656e7320746f2074686973206164647265737321596f75206d757374206f776e20626f746820626561727320746f206272656564207468656d21596f7520617265206e6f7420746865206f776e6572206f66207468697320746f6b656e214f70657261746f7220616464726573732063616e6e6f74206265206f776e65722154686973206973206f6e6c792065786563757461626c6520627920746865206f776e6572215472616e7366657220746f207a65726f2d61646472657373206973206e6f7420706f737369626c65214f776e65722061646472657373206973206e6f7420636f6e6e656374656420746f207468697320746f6b656e21546869732063616e206f6e6c792062652063616c6c65642066726f6d206f776e657273206f72206f70657261746f7273214f6e6c79204f776e65722c204f70657261746f72206f7220417070726f766564204164647265737365732063616e207472616e7366657221a265627a7a72315820575b7f9c3349f10c0d79917da6ef32e8520525ec6e1e296c6bcf2d214b71839464736f6c63430005100032",
  "source": "pragma solidity ^0.5.12;\r\n\r\nimport \"./IERC721.sol\";\r\nimport \"./IERC721Receiver.sol\";\r\nimport \"./Ownable.sol\";\r\n\r\ncontract CryptoBears is IERC721, Ownable {\r\n\r\n    string public constant bearTokenName = \"CryptoBears\";   //Token Name\r\n    string public constant bearTokenSymbol = \"CB\";          //Token Symbol\r\n    uint256 public constant CREATION_LIMIT_GEN0 = 10;\r\n    \r\n    bytes4 internal constant MAGIC_ERC721_RECEIVED = bytes4(keccak256(\"onERC721Received(address,address,uint256,bytes)\"));\r\n\r\n    bytes4 private constant _INTERFACE_ID_ERC721 = 0x80ac58cd;\r\n\r\n    bytes4 private constant _INTERFACE_ID_ERC165 = 0x01ffc9a7;\r\n\r\n    struct Bear {\r\n        uint256 genes;\r\n        uint64 birthTime;\r\n        uint32 mumId;\r\n        uint32 dadId;\r\n        uint16 generation;\r\n    }\r\n\r\n    Bear[] bears;\r\n\r\n    //Mappings\r\n    \r\n    mapping(address => uint256) tokenOwnershipCount; //Token owners balance\r\n    mapping(uint256 => address) public tokenIdOwnerMapping; //Maps TokenId to owners address\r\n\r\n    mapping(uint256 => address) public tokenIdToApproved; //Points from tokenId to approved address! For giving permission for one specific token!\r\n    mapping(address => mapping(address => bool)) private _operatorApprovals; //first key = owner, second key = operator, bool shows if operator is approved. Operator can manage ALL tokens!\r\n\r\n    event Birth(address owner, uint256 bearId, uint256 mumId, uint256 dadId, uint256 genes);\r\n\r\n    uint256 public gen0Counter;\r\n\r\n    constructor() public {\r\n        _createBear(0, 0, 0, uint256(-1), address(0));\r\n    }\r\n\r\n    function breed(uint256 _dadId, uint256 _momId) public returns(uint256){\r\n        require(_owns(msg.sender, _dadId) && _owns(msg.sender, _momId), \"You must own both bears to breed them!\");\r\n        \r\n        //get newDna from _mixDna\r\n        uint256 newGenes = _mixDna(bears[_dadId].genes, bears[_momId].genes); \r\n\r\n        //Generation determination\r\n        uint256 newGen;\r\n        if(bears[_momId].generation == bears[_dadId].generation){\r\n            newGen = bears[_momId].generation++;\r\n        }\r\n        else if (bears[_momId].generation < bears[_dadId].generation)\r\n        {\r\n            newGen = bears[_momId].generation++;\r\n        }\r\n        else{\r\n            newGen = ((bears[_momId].generation + bears[_dadId].generation) / 2) + 1;\r\n        }\r\n\r\n        //Create new bear and transfer to msg.sender\r\n        _createBear(_momId, _dadId, newGen, newGenes, msg.sender);\r\n\r\n\r\n    }\r\n\r\n    function supportsInterface(bytes4 _interfaceId) external pure returns(bool){\r\n        return ( _interfaceId == _INTERFACE_ID_ERC721 || _interfaceId == _INTERFACE_ID_ERC165 );\r\n    }\r\n\r\n    //safeTransferFrom ERC721 Specification, without data\r\n       function safeTransferFrom(address _from, address _to, uint256 _tokenId) public {\r\n           safeTransferFrom(_from, _to, _tokenId, \"\");\r\n       }\r\n    function safeTransferFrom(address _from, address _to, uint256 _tokenId, bytes memory _data) public {\r\n\r\n        require(msg.sender == _from || msg.sender == tokenIdToApproved[_tokenId] || isApprovedForAll(_from, msg.sender), \"Only Owner, Operator or Approved Addresses can transfer!\");\r\n        require(_owns(_from, _tokenId), \"Owner address is not connected to this token!\");\r\n        require(_to != address(0), \"Transfer to zero-address is not possible!\");\r\n        require(_tokenId < bears.length, \"This token does not exist!\");\r\n\r\n        _safeTransfer(_from, _to, _tokenId, _data);\r\n    }\r\n  \r\n    function _safeTransfer(address _from, address _to, uint256 _tokenId, bytes memory _data) internal {\r\n        _transfer(_from, _to, _tokenId);\r\n        require( _checkERC721Support(_from, _to, _tokenId, _data) );\r\n    }\r\n\r\n    //Transfers Ownership of a Token\r\n    function transferFrom(address _from, address _to, uint256 _tokenId) external{\r\n\r\n        require(msg.sender == _from || msg.sender == tokenIdToApproved[_tokenId] || isApprovedForAll(_from, msg.sender), \"Only Owner, Operator or Approved Addresses can transfer!\");\r\n        require(_owns(_from, _tokenId), \"Owner address is not connected to this token!\");\r\n        require(_to != address(0), \"Transfer to zero-address is not possible!\");\r\n        require(_tokenId < bears.length, \"This token does not exist!\");\r\n\r\n        _transfer(_from, _to, _tokenId);\r\n    }\r\n\r\n    //Setter Approve operators!\r\n    function setApprovalForAll(address _operator, bool _approved) external{\r\n        require(_operator != msg.sender, \"Operator address cannot be owner!\");\r\n        _setApprovalForAll(_operator, _approved);\r\n   \r\n    }\r\n\r\n    function _setApprovalForAll(address _operator, bool _approved) private{\r\n\r\n        _operatorApprovals[msg.sender][_operator] = _approved;\r\n\r\n        emit ApprovalForAll(msg.sender, _operator, _approved);\r\n    }\r\n\r\n    //Setter for single token approval!\r\n    function approve(address _approved, uint256 _tokenId) external {\r\n        require(_owns(msg.sender, _tokenId), \"This can only be called from owners or operators!\");\r\n\r\n        _approve(_approved, _tokenId);\r\n\r\n        emit Approval(msg.sender, _approved, _tokenId);\r\n\r\n    }\r\n\r\n    function _approve(address _approved, uint256 _tokenId) private {\r\n\r\n            tokenIdToApproved[_tokenId] = _approved;\r\n        }\r\n\r\n    //Getter single Token Approvals\r\n    function getApproved(uint256 _tokenId) external view returns (address){\r\n        require(_tokenId < bears.length, \"Not a valid token ID!\");\r\n        return tokenIdToApproved[_tokenId];\r\n    }\r\n\r\n    function isApprovedForAll(address _owner, address _operator) public view returns (bool){\r\n        return _operatorApprovals[_owner][_operator];\r\n\r\n    }\r\n\r\n    //Getter function for Token\r\n    function getBear(uint256 _tokenId) external view returns(\r\n        uint256 genes, \r\n        uint256 birthTime, \r\n        uint256 mumId, \r\n        uint256 dadId, \r\n        uint256 generation\r\n        ) {\r\n        return (bears[_tokenId].genes, \r\n                uint256(bears[_tokenId].birthTime), \r\n                uint256(bears[_tokenId].mumId), \r\n                uint256(bears[_tokenId].dadId), \r\n                uint256(bears[_tokenId].generation)\r\n                );\r\n    }\r\n\r\n    //Mint a gen0 Token\r\n    function createBearGen0(uint256 _genes) public OnlyOwner returns(uint256) {\r\n        require(gen0Counter < CREATION_LIMIT_GEN0, \"Creation limit reached!\");\r\n\r\n        gen0Counter++;\r\n\r\n        return _createBear(0, 0, 0, _genes, msg.sender);\r\n    }\r\n\r\n\r\n    function _createBear(\r\n        uint256 _mumId,\r\n        uint256 _dadId,\r\n        uint256 _generation,\r\n        uint256 _genes,\r\n        address _owner\r\n    ) private returns(uint256) {\r\n        Bear memory _bear = Bear({\r\n            genes: _genes,\r\n            birthTime: uint64(block.timestamp),\r\n            mumId: uint32(_mumId),\r\n            dadId: uint32(_dadId),\r\n            generation: uint16(_generation)\r\n        });\r\n\r\n        uint256 newBearId = bears.push(_bear) - 1;  //push function returns array length! to get id -1 because 0-indexed\r\n\r\n        emit Birth(_owner, newBearId, _mumId, _dadId, _genes);\r\n\r\n        _transfer(address(0), _owner, newBearId);\r\n\r\n        return newBearId;\r\n        \r\n    }\r\n\r\n    //Getter function balanceOf\r\n     function balanceOf(address owner) external view returns (uint256 balance){\r\n         return tokenOwnershipCount[owner];\r\n     }\r\n\r\n    //Getter totalSupply\r\n      function totalSupply() public view returns (uint256 total){\r\n          return bears.length;\r\n      }\r\n\r\n    //Getter Token Name\r\n      function name() external view returns (string memory tokenName){\r\n          return bearTokenName;\r\n      }\r\n\r\n    //Getter Token Symbol\r\n    function symbol() external view returns (string memory tokenSymbol){\r\n        return bearTokenSymbol;\r\n    }\r\n\r\n    //Getter Owner of Token\r\n     function ownerOf(uint256 tokenId) external view returns (address owner){\r\n        return tokenIdOwnerMapping[tokenId];\r\n     }\r\n\r\n     function transfer(address to, uint256 _tokenId) external {\r\n         require(_owns(msg.sender, _tokenId), \"You are not the owner of this token!\");\r\n         require(to != address(0), \"You cannot send tokens to this address!\");\r\n         require(to != address(this), \"You cannot send tokens to this address!\");\r\n\r\n         _transfer(msg.sender, to, _tokenId);\r\n\r\n         \r\n     }\r\n\r\n     function _transfer(address _from, address _to, uint256 _tokenId) internal {\r\n            tokenOwnershipCount[_to]++;\r\n\r\n            tokenIdOwnerMapping[_tokenId] = _to;\r\n\r\n            if(_from != address(0)){\r\n                tokenOwnershipCount[_from]--;\r\n                delete tokenIdToApproved[_tokenId];\r\n            }\r\n\r\n            emit Transfer(_from, _to, _tokenId);\r\n     }\r\n\r\n     function _owns(address _claimant, uint256 _tokenId) public view returns(bool) {\r\n         return tokenIdOwnerMapping[_tokenId] == _claimant;\r\n     }\r\n\r\n    function _checkERC721Support(address _from, address _to, uint256 _tokenId, bytes memory _data) internal returns(bool) {\r\n        if( !_isContract(_to) ){\r\n            return true;\r\n        }\r\n\r\n        //call onERC721Received in _to contract, \r\n        bytes4 returnData = IERC721Receiver(_to).onERC721Received(msg.sender, _from, _tokenId, _data);\r\n          \r\n        //check the return value \r\n        return returnData == MAGIC_ERC721_RECEIVED;\r\n    }\r\n\r\n    function _isContract(address _to) internal view returns(bool){\r\n        uint32 size;\r\n        assembly{\r\n            size := extcodesize(_to)  //Solidity Assembly function to GET code size for a given address!\r\n        }\r\n        return size > 0;\r\n    }\r\n\r\n    function _mixDna(uint256 _dadDna, uint256 _momDna) internal view returns(uint256){\r\n        uint256[8] memory geneArray;\r\n        uint8 random = uint8( block.timestamp % 255 );  //gives binary between 00000000 and 11111111\r\n        uint256 i = 1;\r\n        uint256 index = 7;\r\n        for(i = 1; i <= 128; i=i*2 ){\r\n            if(random & i != 0){\r\n                geneArray[index] = uint8(_momDna % 100);\r\n            }\r\n            else{\r\n                geneArray[index] = uint8(_dadDna % 100);\r\n            }\r\n            _momDna = _momDna / 100;\r\n            _dadDna = _dadDna / 100;\r\n\r\n            index = index - 1;\r\n\r\n            //We have to work with bitwise operators:  \r\n            //1, 2, 4, 8, 16, 32, 64, 128\r\n            //1 =   00000001\r\n            //2 =   00000010\r\n            //4 =   00000100\r\n            //8 =   00001000\r\n            //16 =  00010000\r\n            //32 =  00100000\r\n            //64 =  01000000\r\n            //128=  10000000\r\n            // & is bitwise Operator\r\n        } //End of Loop\r\n\r\n        uint256 newGene;\r\n        for (i = 0; i < 8; i++){\r\n            newGene = newGene + geneArray[i];\r\n            if(i != 7){\r\n                 newGene = newGene * 100;\r\n            }\r\n           \r\n\r\n            /*\r\n            Imagine a DNA ARRAY! like this [11, 22, 33, 44, 55, 66, 77, 88]\r\n            to make single number out of it, we say newNumber + 11, \r\n            then 11 * 100 = 1100, then newNumber, which now is 1100, + 22 = 1122\r\n            then 1122 * 100 = 112200, then + 33 = 112233, ...\r\n            .\r\n            .\r\n            .\r\n            and so on till we have 1122334455667788 as one single number! \r\n            Clever stuff!\r\n            */\r\n        }//End of Loop\r\n\r\n        return newGene;\r\n\r\n\r\n        \r\n        \r\n        //Simple DNA MIXING\r\n        // uint256 dadHalf = _dadDna / 100000000;\r\n        // uint256 momHalf = _momDna % 100000000;\r\n        // uint256 newDna = (dadHalf * 100000000) + momHalf;\r\n        // return newDna;\r\n    }\r\n\r\n    function getBearsLength() public returns(uint256){\r\n        return bears.length;\r\n    }\r\n\r\n}\r\n\r\n",
  "sourcePath": "C:/Users/sound/Desktop/EthProjects/CryptoKitties/academy-kitties-template/contracts/CryptoBears.sol",
  "compiler": {
    "name": "solc",
    "version": "0.5.16+commit.9c3226ce.Emscripten.clang"
  },
  "schemaVersion": "3.3.4",
  "updatedAt": "2021-05-07T19:54:28.316Z",
  "networkType": "ethereum",
  "devdoc": {
    "methods": {}
  },
  "userdoc": {
    "methods": {}
  }
}