{
  "contractName": "Marketplace",
  "abi": [
    {
      "inputs": [
        {
          "internalType": "address",
          "name": "_bearsContractAddress",
          "type": "address"
        }
      ],
      "payable": false,
      "stateMutability": "nonpayable",
      "type": "constructor"
    },
    {
      "anonymous": false,
      "inputs": [
        {
          "indexed": false,
          "internalType": "string",
          "name": "TxType",
          "type": "string"
        },
        {
          "indexed": false,
          "internalType": "address",
          "name": "owner",
          "type": "address"
        },
        {
          "indexed": false,
          "internalType": "uint256",
          "name": "tokenId",
          "type": "uint256"
        }
      ],
      "name": "MarketTransaction",
      "type": "event"
    },
    {
      "anonymous": false,
      "inputs": [
        {
          "indexed": false,
          "internalType": "address",
          "name": "owner",
          "type": "address"
        }
      ],
      "name": "ownerSet",
      "type": "event"
    },
    {
      "constant": false,
      "inputs": [
        {
          "internalType": "address",
          "name": "_bearsContractAddress",
          "type": "address"
        }
      ],
      "name": "setBearContract",
      "outputs": [],
      "payable": false,
      "stateMutability": "nonpayable",
      "type": "function"
    },
    {
      "constant": true,
      "inputs": [
        {
          "internalType": "uint256",
          "name": "_tokenId",
          "type": "uint256"
        }
      ],
      "name": "getOffer",
      "outputs": [
        {
          "internalType": "address",
          "name": "seller",
          "type": "address"
        },
        {
          "internalType": "uint256",
          "name": "price",
          "type": "uint256"
        },
        {
          "internalType": "uint256",
          "name": "index",
          "type": "uint256"
        },
        {
          "internalType": "uint256",
          "name": "tokenId",
          "type": "uint256"
        },
        {
          "internalType": "bool",
          "name": "active",
          "type": "bool"
        }
      ],
      "payable": false,
      "stateMutability": "view",
      "type": "function"
    },
    {
      "constant": false,
      "inputs": [],
      "name": "getAllTokenOnSale",
      "outputs": [
        {
          "internalType": "uint256[]",
          "name": "listOfOffers",
          "type": "uint256[]"
        }
      ],
      "payable": false,
      "stateMutability": "nonpayable",
      "type": "function"
    },
    {
      "constant": false,
      "inputs": [
        {
          "internalType": "uint256",
          "name": "_price",
          "type": "uint256"
        },
        {
          "internalType": "uint256",
          "name": "_tokenId",
          "type": "uint256"
        }
      ],
      "name": "setOffer",
      "outputs": [],
      "payable": false,
      "stateMutability": "nonpayable",
      "type": "function"
    },
    {
      "constant": false,
      "inputs": [
        {
          "internalType": "uint256",
          "name": "_tokenId",
          "type": "uint256"
        }
      ],
      "name": "removeOffer",
      "outputs": [],
      "payable": false,
      "stateMutability": "nonpayable",
      "type": "function"
    },
    {
      "constant": false,
      "inputs": [
        {
          "internalType": "uint256",
          "name": "_tokenId",
          "type": "uint256"
        }
      ],
      "name": "buyBear",
      "outputs": [],
      "payable": true,
      "stateMutability": "payable",
      "type": "function"
    }
  ],
  "bytecode": "0x608060405234801561001057600080fd5b5060405161140f38038061140f8339818101604052602081101561003357600080fd5b8101908080519060200190929190505050336000806101000a81548173ffffffffffffffffffffffffffffffffffffffff021916908373ffffffffffffffffffffffffffffffffffffffff1602179055507f02e3cdb0a1a6322f9160f5e33c21f317e6f18e77c771778f9be6d0752f9f988b6000809054906101000a900473ffffffffffffffffffffffffffffffffffffffff16604051808273ffffffffffffffffffffffffffffffffffffffff1673ffffffffffffffffffffffffffffffffffffffff16815260200191505060405180910390a16101178161011d60201b60201c565b50610206565b6000809054906101000a900473ffffffffffffffffffffffffffffffffffffffff1673ffffffffffffffffffffffffffffffffffffffff163373ffffffffffffffffffffffffffffffffffffffff16146101c2576040517f08c379a00000000000000000000000000000000000000000000000000000000081526004018080602001828103825260258152602001806113ea6025913960400191505060405180910390fd5b80600160006101000a81548173ffffffffffffffffffffffffffffffffffffffff021916908373ffffffffffffffffffffffffffffffffffffffff16021790555050565b6111d5806102156000396000f3fe6080604052600436106100555760003560e01c80634579268a1461005a57806345b98e32146100f557806349b3709f1461014657806370e8c5ea146101b2578063941b055b146101e057806395a0f9c714610225575b600080fd5b34801561006657600080fd5b506100936004803603602081101561007d57600080fd5b8101908080359060200190929190505050610260565b604051808673ffffffffffffffffffffffffffffffffffffffff1673ffffffffffffffffffffffffffffffffffffffff168152602001858152602001848152602001838152602001821515151581526020019550505050505060405180910390f35b34801561010157600080fd5b506101446004803603602081101561011857600080fd5b81019080803573ffffffffffffffffffffffffffffffffffffffff1690602001909291905050506102db565b005b34801561015257600080fd5b5061015b6103c4565b6040518080602001828103825283818151815260200191508051906020019060200280838360005b8381101561019e578082015181840152602081019050610183565b505050509050019250505060405180910390f35b6101de600480360360208110156101c857600080fd5b81019080803590602001909291905050506104d9565b005b3480156101ec57600080fd5b506102236004803603604081101561020357600080fd5b8101908080359060200190929190803590602001909291905050506108e1565b005b34801561023157600080fd5b5061025e6004803603602081101561024857600080fd5b8101908080359060200190929190505050610d6d565b005b6000806000806000806003600088815260200190815260200160002090508060000160009054906101000a900473ffffffffffffffffffffffffffffffffffffffff168160010154826002015483600301548460040160009054906101000a900460ff16849450955095509550955095505091939590929450565b6000809054906101000a900473ffffffffffffffffffffffffffffffffffffffff1673ffffffffffffffffffffffffffffffffffffffff163373ffffffffffffffffffffffffffffffffffffffff1614610380576040517f08c379a000000000000000000000000000000000000000000000000000000000815260040180806020018281038252602581526020018061112f6025913960400191505060405180910390fd5b80600160006101000a81548173ffffffffffffffffffffffffffffffffffffffff021916908373ffffffffffffffffffffffffffffffffffffffff16021790555050565b6060600060028054905090506000600280549050141561041757600060405190808252806020026020018201604052801561040e5781602001602082028038833980820191505090505b509150506104d6565b6060816040519080825280602002602001820160405280156104485781602001602082028038833980820191505090505b50905060008090505b828110156104cf576002818154811061046657fe5b906000526020600020906005020160040160009054906101000a900460ff16156104c2576002818154811061049757fe5b9060005260206000209060050201600301548282815181106104b557fe5b6020026020010181815250505b8080600101915050610451565b8193505050505b90565b6104e161107f565b600360008381526020019081526020016000206040518060a00160405290816000820160009054906101000a900473ffffffffffffffffffffffffffffffffffffffff1673ffffffffffffffffffffffffffffffffffffffff1673ffffffffffffffffffffffffffffffffffffffff1681526020016001820154815260200160028201548152602001600382015481526020016004820160009054906101000a900460ff161515151581525050905080602001513414610609576040517f08c379a00000000000000000000000000000000000000000000000000000000081526004018080602001828103825260108152602001807f496e636f7272656374207072696365210000000000000000000000000000000081525060200191505060405180910390fd5b600115156003600084815260200190815260200160002060040160009054906101000a900460ff161515146106a6576040517f08c379a000000000000000000000000000000000000000000000000000000000815260040180806020018281038252601e8152602001807f42656172206973206e6f74206f6e2073616c652063757272656e746c7921000081525060200191505060405180910390fd5b6106ae61107f565b90506000151560028260400151815481106106c557fe5b906000526020600020906005020160040160009054906101000a9050505060008160200151111561074057806000015173ffffffffffffffffffffffffffffffffffffffff166108fc82602001519081150290604051600060405180830381858888f1935050505015801561073e573d6000803e3d6000fd5b505b600160009054906101000a900473ffffffffffffffffffffffffffffffffffffffff1673ffffffffffffffffffffffffffffffffffffffff166323b872dd826000015133856040518463ffffffff1660e01b8152600401808473ffffffffffffffffffffffffffffffffffffffff1673ffffffffffffffffffffffffffffffffffffffff1681526020018373ffffffffffffffffffffffffffffffffffffffff1673ffffffffffffffffffffffffffffffffffffffff1681526020018281526020019350505050600060405180830381600087803b15801561082157600080fd5b505af1158015610835573d6000803e3d6000fd5b505050507fd99e4fad9ad6313b1feb588fa8e605e3a9873172f2024330c35dd2b4041a4386338360405180806020018473ffffffffffffffffffffffffffffffffffffffff1673ffffffffffffffffffffffffffffffffffffffff168152602001838152602001828103825260098152602001807f426561722053616c650000000000000000000000000000000000000000000000815250602001935050505060405180910390a15050565b6108eb3382610f99565b610940576040517f08c379a000000000000000000000000000000000000000000000000000000000815260040180806020018281038252602781526020018061117a6027913960400191505060405180910390fd5b600015156003600083815260200190815260200160002060040160009054906101000a900460ff161515146109c0576040517f08c379a000000000000000000000000000000000000000000000000000000000815260040180806020018281038252602481526020018061110b6024913960400191505060405180910390fd5b600160009054906101000a900473ffffffffffffffffffffffffffffffffffffffff1673ffffffffffffffffffffffffffffffffffffffff1663e985e9c533306040518363ffffffff1660e01b8152600401808373ffffffffffffffffffffffffffffffffffffffff1673ffffffffffffffffffffffffffffffffffffffff1681526020018273ffffffffffffffffffffffffffffffffffffffff1673ffffffffffffffffffffffffffffffffffffffff1681526020019250505060206040518083038186803b158015610a9357600080fd5b505afa158015610aa7573d6000803e3d6000fd5b505050506040513d6020811015610abd57600080fd5b8101908080519060200190929190505050610b23576040517f08c379a00000000000000000000000000000000000000000000000000000000081526004018080602001828103825260448152602001806110c76044913960600191505060405180910390fd5b610b2b61107f565b6040518060a001604052803373ffffffffffffffffffffffffffffffffffffffff1681526020018481526020016002805490508152602001838152602001600115158152509050806003600084815260200190815260200160002060008201518160000160006101000a81548173ffffffffffffffffffffffffffffffffffffffff021916908373ffffffffffffffffffffffffffffffffffffffff16021790555060208201518160010155604082015181600201556060820151816003015560808201518160040160006101000a81548160ff0219169083151502179055509050506002819080600181540180825580915050906001820390600052602060002090600502016000909192909190915060008201518160000160006101000a81548173ffffffffffffffffffffffffffffffffffffffff021916908373ffffffffffffffffffffffffffffffffffffffff16021790555060208201518160010155604082015181600201556060820151816003015560808201518160040160006101000a81548160ff0219169083151502179055505050507fd99e4fad9ad6313b1feb588fa8e605e3a9873172f2024330c35dd2b4041a4386338360405180806020018473ffffffffffffffffffffffffffffffffffffffff1673ffffffffffffffffffffffffffffffffffffffff1681526020018381526020018281038252600c8152602001807f437265617465204f666665720000000000000000000000000000000000000000815250602001935050505060405180910390a1505050565b610d7561107f565b600360008381526020019081526020016000206040518060a00160405290816000820160009054906101000a900473ffffffffffffffffffffffffffffffffffffffff1673ffffffffffffffffffffffffffffffffffffffff1673ffffffffffffffffffffffffffffffffffffffff1681526020016001820154815260200160028201548152602001600382015481526020016004820160009054906101000a900460ff16151515158152505090503373ffffffffffffffffffffffffffffffffffffffff16816000015173ffffffffffffffffffffffffffffffffffffffff1614610eac576040517f08c379a00000000000000000000000000000000000000000000000000000000081526004018080602001828103825260268152602001806111546026913960400191505060405180910390fd5b610eb461107f565b905060006002826040015181548110610ec957fe5b906000526020600020906005020160040160006101000a81548160ff0219169083151502179055507fd99e4fad9ad6313b1feb588fa8e605e3a9873172f2024330c35dd2b4041a4386338360405180806020018473ffffffffffffffffffffffffffffffffffffffff1673ffffffffffffffffffffffffffffffffffffffff1681526020018381526020018281038252600c8152602001807f52656d6f7665204f666665720000000000000000000000000000000000000000815250602001935050505060405180910390a15050565b60008273ffffffffffffffffffffffffffffffffffffffff16600160009054906101000a900473ffffffffffffffffffffffffffffffffffffffff1673ffffffffffffffffffffffffffffffffffffffff16636352211e846040518263ffffffff1660e01b81526004018082815260200191505060206040518083038186803b15801561102557600080fd5b505afa158015611039573d6000803e3d6000fd5b505050506040513d602081101561104f57600080fd5b810190808051906020019092919050505073ffffffffffffffffffffffffffffffffffffffff1614905092915050565b6040518060a00160405280600073ffffffffffffffffffffffffffffffffffffffff168152602001600081526020016000815260200160008152602001600015158152509056fe54686520546f6b656e20436f6e747261637420646f6573206e6f742068617665207065726d697373696f6e20746f207472616e7366657220796f757220746f6b656e7321596f752063616e6e6f742073656c6c207468652073616d6520626561722074776963652154686973206973206f6e6c792065786563757461626c6520627920746865206f776e6572214f6e6c792073656c6c65722063616e2072656d6f766520426561722066726f6d2073616c6521596f75206d757374206f776e20746865206265617220796f752077616e7420746f2073656c6c21a265627a7a723158201031f589ce5166026a964389fb468095e7b26c1e15cbb8b52deea0e23c0383fd64736f6c6343000510003254686973206973206f6e6c792065786563757461626c6520627920746865206f776e657221",
  "source": "pragma solidity ^0.5.12;\r\n\r\n\r\nimport \"./CryptoBears.sol\";\r\nimport \"./IMarketplace.sol\";\r\nimport \"./Ownable.sol\";\r\n\r\n\r\ncontract Marketplace is Ownable, IMarketPlace{\r\n\r\n    CryptoBears private _cryptoBears;\r\n\r\n    struct Offer {\r\n        address payable seller;\r\n        uint256 price;\r\n        uint256 index;\r\n        uint256 tokenId;\r\n        bool active;\r\n    }\r\n\r\n    Offer[] offers;\r\n\r\n    event MarketTransaction(string TxType, address owner, uint256 tokenId);\r\n\r\n    mapping (uint256 => Offer) tokenIdToOffer;\r\n\r\n    constructor (address _bearsContractAddress) public {\r\n        setBearContract(_bearsContractAddress);\r\n    }\r\n\r\n    //Sets address for tokenContract and initializes it\r\n    function  setBearContract(address _bearsContractAddress) public OnlyOwner {\r\n       _cryptoBears = CryptoBears(_bearsContractAddress);\r\n    }\r\n\r\n    function getOffer(uint256 _tokenId) \r\n        public \r\n        view \r\n        returns\r\n    (\r\n        address seller, \r\n        uint256 price,\r\n        uint256 index,\r\n        uint256 tokenId,\r\n        bool active\r\n    ) {\r\n        Offer storage offer = tokenIdToOffer[_tokenId];\r\n\r\n        return (\r\n            offer.seller, \r\n            offer.price, \r\n            offer.index, \r\n            offer.tokenId, \r\n            offer.active\r\n        );\r\n    }\r\n\r\n    function getAllTokenOnSale() public returns(uint256[] memory listOfOffers){\r\n\r\n        uint256 totalOffers = offers.length; //Gets total number of offers\r\n\r\n        if(offers.length == 0){\r\n            return new uint256[](0);\r\n        } else {\r\n\r\n            uint256[] memory result = new uint256[](totalOffers);\r\n\r\n            uint256 offerId;\r\n\r\n            for (offerId = 0; offerId < totalOffers; offerId++){\r\n                if(offers[offerId].active){\r\n                    result[offerId] = offers[offerId].tokenId;\r\n                }\r\n            } \r\n            return result;\r\n        }\r\n    } //End of getAllTokenOnSale()\r\n\r\n    function _ownsBears(address _address, uint256 _tokenId) \r\n        internal\r\n        view\r\n        returns ( bool )\r\n    {\r\n            return (_cryptoBears.ownerOf(_tokenId) == _address);\r\n    }\r\n\r\n    function setOffer(uint256 _price, uint256 _tokenId) public {\r\n        require(\r\n            _ownsBears(msg.sender, _tokenId), \r\n            \"You must own the bear you want to sell!\"\r\n        );\r\n        require(tokenIdToOffer[_tokenId].active == false, \"You cannot sell the same bear twice!\");\r\n        require(_cryptoBears.isApprovedForAll(msg.sender, address(this)), \"The Token Contract does not have permission to transfer your tokens!\");\r\n\r\n        Offer memory _offer = Offer({\r\n            seller: msg.sender,\r\n            price: _price,\r\n            index: offers.length,\r\n            tokenId: _tokenId,\r\n            active: true\r\n        });\r\n\r\n        tokenIdToOffer[_tokenId] = _offer;\r\n        offers.push(_offer);\r\n\r\n        emit MarketTransaction(\"Create Offer\", msg.sender, _tokenId);\r\n    }\r\n\r\n    function removeOffer(uint256 _tokenId) public {\r\n        Offer memory offer = tokenIdToOffer[_tokenId];\r\n        require(\r\n            offer.seller == msg.sender, \"Only seller can remove Bear from sale!\"\r\n        );\r\n       \r\n\r\n        delete offer;\r\n        offers[offer.index].active = false;\r\n\r\n        emit MarketTransaction(\"Remove Offer\", msg.sender, _tokenId);\r\n    }\r\n\r\n    function buyBear(uint256 _tokenId) public payable {\r\n        Offer memory offer = tokenIdToOffer[_tokenId];\r\n        require(msg.value == offer.price, \"Incorrect price!\");\r\n        require(tokenIdToOffer[_tokenId].active == true, \"Bear is not on sale currently!\");\r\n\r\n        delete offer;\r\n        offers[offer.index].active == false;\r\n\r\n        if (offer.price > 0){\r\n            offer.seller.transfer(offer.price);\r\n        }\r\n\r\n        _cryptoBears.transferFrom(offer.seller, msg.sender, _tokenId);\r\n\r\n        emit MarketTransaction(\"Bear Sale\", msg.sender, _tokenId);\r\n    }\r\n\r\n\r\n    \r\n    \r\n}",
  "sourcePath": "C:/Users/sound/Desktop/EthProjects/CryptoKitties/academy-kitties-template/contracts/Marketplace.sol",
  "compiler": {
    "name": "solc",
    "version": "0.5.16+commit.9c3226ce.Emscripten.clang"
  },
  "schemaVersion": "3.3.4",
  "updatedAt": "2021-05-07T19:54:28.330Z",
  "networkType": "ethereum",
  "devdoc": {
    "methods": {}
  },
  "userdoc": {
    "methods": {}
  }
}